{
  "contractName": "MultiSigWallet",
  "abi": [
    {
      "inputs": [
        {
          "internalType": "address[]",
          "name": "_owners",
          "type": "address[]"
        },
        {
          "internalType": "uint8",
          "name": "_numConfirmationsRequired",
          "type": "uint8"
        }
      ],
      "stateMutability": "payable",
      "type": "constructor",
      "payable": true
    },
    {
      "anonymous": false,
      "inputs": [
        {
          "indexed": true,
          "internalType": "address",
          "name": "owner",
          "type": "address"
        },
        {
          "indexed": true,
          "internalType": "uint8",
          "name": "txIndex",
          "type": "uint8"
        }
      ],
      "name": "ConfirmTransaction",
      "type": "event"
    },
    {
      "anonymous": false,
      "inputs": [
        {
          "indexed": true,
          "internalType": "address",
          "name": "sender",
          "type": "address"
        },
        {
          "indexed": false,
          "internalType": "uint256",
          "name": "amount",
          "type": "uint256"
        },
        {
          "indexed": false,
          "internalType": "uint256",
          "name": "balance",
          "type": "uint256"
        }
      ],
      "name": "Deposit",
      "type": "event"
    },
    {
      "anonymous": false,
      "inputs": [
        {
          "indexed": true,
          "internalType": "address",
          "name": "owner",
          "type": "address"
        },
        {
          "indexed": true,
          "internalType": "uint8",
          "name": "txIndex",
          "type": "uint8"
        }
      ],
      "name": "ExecuteTransaction",
      "type": "event"
    },
    {
      "anonymous": false,
      "inputs": [
        {
          "indexed": true,
          "internalType": "address",
          "name": "owner",
          "type": "address"
        },
        {
          "indexed": true,
          "internalType": "uint8",
          "name": "txIndex",
          "type": "uint8"
        }
      ],
      "name": "RevokeConfirmation",
      "type": "event"
    },
    {
      "anonymous": false,
      "inputs": [
        {
          "indexed": true,
          "internalType": "address",
          "name": "owner",
          "type": "address"
        },
        {
          "indexed": true,
          "internalType": "uint8",
          "name": "txIndex",
          "type": "uint8"
        },
        {
          "indexed": true,
          "internalType": "address",
          "name": "to",
          "type": "address"
        },
        {
          "indexed": false,
          "internalType": "uint256",
          "name": "value",
          "type": "uint256"
        },
        {
          "indexed": false,
          "internalType": "bytes",
          "name": "data",
          "type": "bytes"
        }
      ],
      "name": "SubmitTransaction",
      "type": "event"
    },
    {
      "inputs": [
        {
          "internalType": "uint8",
          "name": "",
          "type": "uint8"
        },
        {
          "internalType": "address",
          "name": "",
          "type": "address"
        }
      ],
      "name": "isConfirmed",
      "outputs": [
        {
          "internalType": "bool",
          "name": "",
          "type": "bool"
        }
      ],
      "stateMutability": "view",
      "type": "function",
      "constant": true
    },
    {
      "inputs": [
        {
          "internalType": "address",
          "name": "",
          "type": "address"
        }
      ],
      "name": "isOwner",
      "outputs": [
        {
          "internalType": "bool",
          "name": "",
          "type": "bool"
        }
      ],
      "stateMutability": "view",
      "type": "function",
      "constant": true
    },
    {
      "inputs": [],
      "name": "numConfirmationsRequired",
      "outputs": [
        {
          "internalType": "uint8",
          "name": "",
          "type": "uint8"
        }
      ],
      "stateMutability": "view",
      "type": "function",
      "constant": true
    },
    {
      "inputs": [
        {
          "internalType": "uint256",
          "name": "",
          "type": "uint256"
        }
      ],
      "name": "owners",
      "outputs": [
        {
          "internalType": "address",
          "name": "",
          "type": "address"
        }
      ],
      "stateMutability": "view",
      "type": "function",
      "constant": true
    },
    {
      "inputs": [
        {
          "internalType": "uint256",
          "name": "",
          "type": "uint256"
        }
      ],
      "name": "transactions",
      "outputs": [
        {
          "internalType": "address",
          "name": "from",
          "type": "address"
        },
        {
          "internalType": "address",
          "name": "to",
          "type": "address"
        },
        {
          "internalType": "uint256",
          "name": "value",
          "type": "uint256"
        },
        {
          "internalType": "bytes",
          "name": "data",
          "type": "bytes"
        },
        {
          "internalType": "bool",
          "name": "executed",
          "type": "bool"
        },
        {
          "internalType": "uint8",
          "name": "numConfirmations",
          "type": "uint8"
        }
      ],
      "stateMutability": "view",
      "type": "function",
      "constant": true
    },
    {
      "inputs": [
        {
          "internalType": "bytes32",
          "name": "",
          "type": "bytes32"
        }
      ],
      "name": "usedNonces",
      "outputs": [
        {
          "internalType": "bool",
          "name": "",
          "type": "bool"
        }
      ],
      "stateMutability": "view",
      "type": "function",
      "constant": true
    },
    {
      "stateMutability": "payable",
      "type": "receive",
      "payable": true
    },
    {
      "inputs": [
        {
          "internalType": "address",
          "name": "to",
          "type": "address"
        },
        {
          "internalType": "uint256",
          "name": "value",
          "type": "uint256"
        },
        {
          "internalType": "bytes",
          "name": "data",
          "type": "bytes"
        }
      ],
      "name": "submitTransaction",
      "outputs": [],
      "stateMutability": "nonpayable",
      "type": "function"
    },
    {
      "inputs": [
        {
          "internalType": "uint8",
          "name": "_txIndex",
          "type": "uint8"
        }
      ],
      "name": "confirmTransaction",
      "outputs": [],
      "stateMutability": "nonpayable",
      "type": "function"
    },
    {
      "inputs": [
        {
          "internalType": "uint8",
          "name": "_txIndex",
          "type": "uint8"
        }
      ],
      "name": "revokeConfirmation",
      "outputs": [],
      "stateMutability": "nonpayable",
      "type": "function"
    },
    {
      "inputs": [
        {
          "internalType": "uint8",
          "name": "_txIndex",
          "type": "uint8"
        }
      ],
      "name": "executeTransaction",
      "outputs": [],
      "stateMutability": "nonpayable",
      "type": "function"
    },
    {
      "inputs": [
        {
          "internalType": "address",
          "name": "to",
          "type": "address"
        },
        {
          "internalType": "uint256",
          "name": "value",
          "type": "uint256"
        },
        {
          "internalType": "bytes",
          "name": "data",
          "type": "bytes"
        },
        {
          "internalType": "bytes32",
          "name": "nonce",
          "type": "bytes32"
        },
        {
          "internalType": "bytes32",
          "name": "r",
          "type": "bytes32"
        },
        {
          "internalType": "bytes32",
          "name": "s",
          "type": "bytes32"
        },
        {
          "internalType": "uint8",
          "name": "v",
          "type": "uint8"
        }
      ],
      "name": "verifySignature",
      "outputs": [],
      "stateMutability": "nonpayable",
      "type": "function"
    },
    {
      "inputs": [],
      "name": "getOwners",
      "outputs": [
        {
          "internalType": "address[]",
          "name": "",
          "type": "address[]"
        }
      ],
      "stateMutability": "view",
      "type": "function",
      "constant": true
    },
    {
      "inputs": [],
      "name": "getTransactionCount",
      "outputs": [
        {
          "internalType": "uint256",
          "name": "",
          "type": "uint256"
        }
      ],
      "stateMutability": "view",
      "type": "function",
      "constant": true
    },
    {
      "inputs": [
        {
          "internalType": "uint8",
          "name": "_txIndex",
          "type": "uint8"
        }
      ],
      "name": "getTransaction",
      "outputs": [
        {
          "internalType": "address",
          "name": "from",
          "type": "address"
        },
        {
          "internalType": "address",
          "name": "to",
          "type": "address"
        },
        {
          "internalType": "uint256",
          "name": "value",
          "type": "uint256"
        },
        {
          "internalType": "bytes",
          "name": "data",
          "type": "bytes"
        },
        {
          "internalType": "bool",
          "name": "executed",
          "type": "bool"
        },
        {
          "internalType": "uint256",
          "name": "numConfirmations",
          "type": "uint256"
        }
      ],
      "stateMutability": "view",
      "type": "function",
      "constant": true
    },
    {
      "inputs": [],
      "name": "getBalance",
      "outputs": [
        {
          "internalType": "uint256",
          "name": "",
          "type": "uint256"
        }
      ],
      "stateMutability": "view",
      "type": "function",
      "constant": true
    },
    {
      "inputs": [],
      "name": "getContractAddress",
      "outputs": [
        {
          "internalType": "address",
          "name": "",
          "type": "address"
        }
      ],
      "stateMutability": "view",
      "type": "function",
      "constant": true
    }
  ],
  "bytecode": "0x60806040526040516200265d3803806200265d833981810160405260408110156200002957600080fd5b81019080805160405193929190846401000000008211156200004a57600080fd5b838201915060208201858111156200006157600080fd5b82518660208202830111640100000000821117156200007f57600080fd5b8083526020830192505050908051906020019060200280838360005b83811015620000b85780820151818401526020810190506200009b565b505050509050016040526020018051906020019092919050505060008251116200014a576040517f08c379a000000000000000000000000000000000000000000000000000000000815260040180806020018281038252600f8152602001807f6f776e657273207265717569726564000000000000000000000000000000000081525060200191505060405180910390fd5b60008160ff1611801562000162575081518160ff1611155b620001d5576040517f08c379a000000000000000000000000000000000000000000000000000000000815260040180806020018281038252601f8152602001807f696e76616c6964206e756d626572206f6620636f6e6669726d6174696f6e730081525060200191505060405180910390fd5b60005b82518160ff1610156200042f576000838260ff1681518110620001f757fe5b60200260200101519050600073ffffffffffffffffffffffffffffffffffffffff168173ffffffffffffffffffffffffffffffffffffffff161415620002a5576040517f08c379a000000000000000000000000000000000000000000000000000000000815260040180806020018281038252600d8152602001807f696e76616c6964206f776e65720000000000000000000000000000000000000081525060200191505060405180910390fd5b600160008273ffffffffffffffffffffffffffffffffffffffff1673ffffffffffffffffffffffffffffffffffffffff16815260200190815260200160002060009054906101000a900460ff161562000366576040517f08c379a00000000000000000000000000000000000000000000000000000000081526004018080602001828103825260148152602001807f6f776e6572206d75737420626520756e6971756500000000000000000000000081525060200191505060405180910390fd5b60018060008373ffffffffffffffffffffffffffffffffffffffff1673ffffffffffffffffffffffffffffffffffffffff16815260200190815260200160002060006101000a81548160ff0219169083151502179055506000819080600181540180825580915050600190039060005260206000200160009091909190916101000a81548173ffffffffffffffffffffffffffffffffffffffff021916908373ffffffffffffffffffffffffffffffffffffffff160217905550508080600101915050620001d8565b5080600460006101000a81548160ff021916908360ff1602179055505050612200806200045d6000396000f3fe6080604052600436106100f75760003560e01c8063998afd221161008a578063cab94bfc11610059578063cab94bfc1461072f578063d0549b8514610837578063e6fa834d14610865578063feb61724146108a357610154565b8063998afd22146104555780639ace38c2146104c9578063a0e67e2b146105d1578063c64274741461063d57610154565b806332a2c5d0116100c657806332a2c5d01461027b5780635212edf0146102bc57806371ddfd59146103d9578063925387031461041757610154565b8063025e7c271461015957806312065fe0146101be5780632e7700f0146101e95780632f54bf6e1461021457610154565b36610154573373ffffffffffffffffffffffffffffffffffffffff167f90890809c654f11d6e72a28fa60149770a0d11ec6c92319d6ceb2bb0a4ea1a153447604051808381526020018281526020019250505060405180910390a2005b600080fd5b34801561016557600080fd5b506101926004803603602081101561017c57600080fd5b81019080803590602001909291905050506108f4565b604051808273ffffffffffffffffffffffffffffffffffffffff16815260200191505060405180910390f35b3480156101ca57600080fd5b506101d3610933565b6040518082815260200191505060405180910390f35b3480156101f557600080fd5b506101fe6109fa565b6040518082815260200191505060405180910390f35b34801561022057600080fd5b506102636004803603602081101561023757600080fd5b81019080803573ffffffffffffffffffffffffffffffffffffffff169060200190929190505050610a07565b60405180821515815260200191505060405180910390f35b34801561028757600080fd5b50610290610a27565b604051808273ffffffffffffffffffffffffffffffffffffffff16815260200191505060405180910390f35b3480156102c857600080fd5b506103d7600480360360e08110156102df57600080fd5b81019080803573ffffffffffffffffffffffffffffffffffffffff169060200190929190803590602001909291908035906020019064010000000081111561032657600080fd5b82018360208201111561033857600080fd5b8035906020019184600183028401116401000000008311171561035a57600080fd5b91908080601f016020809104026020016040519081016040528093929190818152602001838380828437600081840152601f19601f820116905080830192505050505050509192919290803590602001909291908035906020019092919080359060200190929190803560ff169060200190929190505050610a2f565b005b3480156103e557600080fd5b50610415600480360360208110156103fc57600080fd5b81019080803560ff169060200190929190505050610d49565b005b34801561042357600080fd5b506104536004803603602081101561043a57600080fd5b81019080803560ff1690602001909291905050506111b9565b005b34801561046157600080fd5b506104b16004803603604081101561047857600080fd5b81019080803560ff169060200190929190803573ffffffffffffffffffffffffffffffffffffffff169060200190929190505050611604565b60405180821515815260200191505060405180910390f35b3480156104d557600080fd5b50610502600480360360208110156104ec57600080fd5b8101908080359060200190929190505050611633565b604051808773ffffffffffffffffffffffffffffffffffffffff1681526020018673ffffffffffffffffffffffffffffffffffffffff1681526020018581526020018060200184151581526020018360ff168152602001828103825285818151815260200191508051906020019080838360005b83811015610591578082015181840152602081019050610576565b50505050905090810190601f1680156105be5780820380516001836020036101000a031916815260200191505b5097505050505050505060405180910390f35b3480156105dd57600080fd5b506105e6611771565b6040518080602001828103825283818151815260200191508051906020019060200280838360005b8381101561062957808201518184015260208101905061060e565b505050509050019250505060405180910390f35b34801561064957600080fd5b5061072d6004803603606081101561066057600080fd5b81019080803573ffffffffffffffffffffffffffffffffffffffff16906020019092919080359060200190929190803590602001906401000000008111156106a757600080fd5b8201836020820111156106b957600080fd5b803590602001918460018302840111640100000000831117156106db57600080fd5b91908080601f016020809104026020016040519081016040528093929190818152602001838380828437600081840152601f19601f8201169050808301925050505050505091929192905050506117ff565b005b34801561073b57600080fd5b5061076b6004803603602081101561075257600080fd5b81019080803560ff1690602001909291905050506118cf565b604051808773ffffffffffffffffffffffffffffffffffffffff1681526020018673ffffffffffffffffffffffffffffffffffffffff168152602001858152602001806020018415158152602001838152602001828103825285818151815260200191508051906020019080838360005b838110156107f75780820151818401526020810190506107dc565b50505050905090810190601f1680156108245780820380516001836020036101000a031916815260200191505b5097505050505050505060405180910390f35b34801561084357600080fd5b5061084c611a2a565b604051808260ff16815260200191505060405180910390f35b34801561087157600080fd5b506108a16004803603602081101561088857600080fd5b81019080803560ff169060200190929190505050611a3d565b005b3480156108af57600080fd5b506108dc600480360360208110156108c657600080fd5b8101908080359060200190929190505050611e01565b60405180821515815260200191505060405180910390f35b6000818154811061090457600080fd5b906000526020600020016000915054906101000a900473ffffffffffffffffffffffffffffffffffffffff1681565b6000600160003373ffffffffffffffffffffffffffffffffffffffff1673ffffffffffffffffffffffffffffffffffffffff16815260200190815260200160002060009054906101000a900460ff166109f4576040517f08c379a00000000000000000000000000000000000000000000000000000000081526004018080602001828103825260098152602001807f6e6f74206f776e6572000000000000000000000000000000000000000000000081525060200191505060405180910390fd5b47905090565b6000600580549050905090565b60016020528060005260406000206000915054906101000a900460ff1681565b600030905090565b60008787878730604051602001808673ffffffffffffffffffffffffffffffffffffffff1660601b815260140185815260200184805190602001908083835b60208310610a915780518252602082019150602081019050602083039250610a6e565b6001836020036101000a0380198251168184511680821785525050505050509050018381526020018273ffffffffffffffffffffffffffffffffffffffff1660601b8152601401955050505050506040516020818303038152906040528051906020012090506002600082815260200190815260200160002060009054906101000a900460ff1615610b8b576040517f08c379a00000000000000000000000000000000000000000000000000000000081526004018080602001828103825260158152602001807f7472616e73616374696f6e207375626d6974746564000000000000000000000081525060200191505060405180910390fd5b60016002600083815260200190815260200160002060006101000a81548160ff02191690831515021790555060008160405160200180807f19457468657265756d205369676e6564204d6573736167653a0a333200000000815250601c01828152602001915050604051602081830303815290604052805190602001209050600060018285888860405160008152602001604052604051808581526020018460ff1681526020018381526020018281526020019450505050506020604051602081039080840390855afa158015610c66573d6000803e3d6000fd5b505050602060405103519050600160008273ffffffffffffffffffffffffffffffffffffffff1673ffffffffffffffffffffffffffffffffffffffff16815260200190815260200160002060009054906101000a900460ff16610d31576040517f08c379a000000000000000000000000000000000000000000000000000000000815260040180806020018281038252600c8152602001807f6e6f7420616e206f776e6572000000000000000000000000000000000000000081525060200191505060405180910390fd5b610d3d818b8b8b611e21565b50505050505050505050565b600160003373ffffffffffffffffffffffffffffffffffffffff1673ffffffffffffffffffffffffffffffffffffffff16815260200190815260200160002060009054906101000a900460ff16610e08576040517f08c379a00000000000000000000000000000000000000000000000000000000081526004018080602001828103825260098152602001807f6e6f74206f776e6572000000000000000000000000000000000000000000000081525060200191505060405180910390fd5b8060ff166005805490508110610e86576040517f08c379a000000000000000000000000000000000000000000000000000000000815260040180806020018281038252601a8152602001807f7472616e73616374696f6e20646f6573206e6f7420657869737400000000000081525060200191505060405180910390fd5b8160ff1660058181548110610e9757fe5b906000526020600020906005020160040160009054906101000a900460ff1615610f29576040517f08c379a000000000000000000000000000000000000000000000000000000000815260040180806020018281038252601c8152602001807f7472616e73616374696f6e20616c72656164792065786563757465640000000081525060200191505060405180910390fd5b82600360008260ff1660ff16815260200190815260200160002060003373ffffffffffffffffffffffffffffffffffffffff1673ffffffffffffffffffffffffffffffffffffffff16815260200190815260200160002060009054906101000a900460ff1615611001576040517f08c379a000000000000000000000000000000000000000000000000000000000815260040180806020018281038252601d8152602001807f7472616e73616374696f6e20616c726561647920636f6e6669726d656400000081525060200191505060405180910390fd5b600060058560ff168154811061101357fe5b906000526020600020906005020190503373ffffffffffffffffffffffffffffffffffffffff168160000160009054906101000a900473ffffffffffffffffffffffffffffffffffffffff1673ffffffffffffffffffffffffffffffffffffffff1614156110cc576040517f08c379a00000000000000000000000000000000000000000000000000000000081526004018080602001828103825260468152602001806121856046913960600191505060405180910390fd5b60018160040160018282829054906101000a900460ff160192506101000a81548160ff021916908360ff1602179055506001600360008760ff1660ff16815260200190815260200160002060003373ffffffffffffffffffffffffffffffffffffffff1673ffffffffffffffffffffffffffffffffffffffff16815260200190815260200160002060006101000a81548160ff0219169083151502179055508460ff163373ffffffffffffffffffffffffffffffffffffffff167fe3c80f9dd5639c07c56cdec62fd98870bf6ce1b1febbb69219aef45e1c7d1f6d60405160405180910390a35050505050565b600160003373ffffffffffffffffffffffffffffffffffffffff1673ffffffffffffffffffffffffffffffffffffffff16815260200190815260200160002060009054906101000a900460ff16611278576040517f08c379a00000000000000000000000000000000000000000000000000000000081526004018080602001828103825260098152602001807f6e6f74206f776e6572000000000000000000000000000000000000000000000081525060200191505060405180910390fd5b8060ff1660058054905081106112f6576040517f08c379a000000000000000000000000000000000000000000000000000000000815260040180806020018281038252601a8152602001807f7472616e73616374696f6e20646f6573206e6f7420657869737400000000000081525060200191505060405180910390fd5b8160ff166005818154811061130757fe5b906000526020600020906005020160040160009054906101000a900460ff1615611399576040517f08c379a000000000000000000000000000000000000000000000000000000000815260040180806020018281038252601c8152602001807f7472616e73616374696f6e20616c72656164792065786563757465640000000081525060200191505060405180910390fd5b600060058460ff16815481106113ab57fe5b90600052602060002090600502019050600460009054906101000a900460ff1660ff168160040160019054906101000a900460ff1660ff16101561143a576040517f08c379a000000000000000000000000000000000000000000000000000000000815260040180806020018281038252604e815260200180612137604e913960600191505060405180910390fd5b60018160040160006101000a81548160ff02191690831515021790555060008160010160009054906101000a900473ffffffffffffffffffffffffffffffffffffffff1673ffffffffffffffffffffffffffffffffffffffff1682600201548360030160405180828054600181600116156101000203166002900480156114f85780601f106114d65761010080835404028352918201916114f8565b820191906000526020600020905b8154815290600101906020018083116114e4575b505091505060006040518083038185875af1925050503d806000811461153a576040519150601f19603f3d011682016040523d82523d6000602084013e61153f565b606091505b50509050806115b6576040517f08c379a00000000000000000000000000000000000000000000000000000000081526004018080602001828103825260098152602001807f7478206661696c6564000000000000000000000000000000000000000000000081525060200191505060405180910390fd5b8460ff163373ffffffffffffffffffffffffffffffffffffffff167f27263400dcc659f60990bc4d7ff39fb4a959428b2c2a3217f45c3d65465ee2c160405160405180910390a35050505050565b60036020528160005260406000206020528060005260406000206000915091509054906101000a900460ff1681565b6005818154811061164357600080fd5b90600052602060002090600502016000915090508060000160009054906101000a900473ffffffffffffffffffffffffffffffffffffffff16908060010160009054906101000a900473ffffffffffffffffffffffffffffffffffffffff1690806002015490806003018054600181600116156101000203166002900480601f0160208091040260200160405190810160405280929190818152602001828054600181600116156101000203166002900480156117415780601f1061171657610100808354040283529160200191611741565b820191906000526020600020905b81548152906001019060200180831161172457829003601f168201915b5050505050908060040160009054906101000a900460ff16908060040160019054906101000a900460ff16905086565b606060008054806020026020016040519081016040528092919081815260200182805480156117f557602002820191906000526020600020905b8160009054906101000a900473ffffffffffffffffffffffffffffffffffffffff1673ffffffffffffffffffffffffffffffffffffffff16815260200190600101908083116117ab575b5050505050905090565b600160003373ffffffffffffffffffffffffffffffffffffffff1673ffffffffffffffffffffffffffffffffffffffff16815260200190815260200160002060009054906101000a900460ff166118be576040517f08c379a00000000000000000000000000000000000000000000000000000000081526004018080602001828103825260098152602001807f6e6f74206f776e6572000000000000000000000000000000000000000000000081525060200191505060405180910390fd5b6118ca33848484611e21565b505050565b60008060006060600080600060058860ff16815481106118eb57fe5b906000526020600020906005020190508060000160009054906101000a900473ffffffffffffffffffffffffffffffffffffffff168160010160009054906101000a900473ffffffffffffffffffffffffffffffffffffffff168260020154836003018460040160009054906101000a900460ff168560040160019054906101000a900460ff16828054600181600116156101000203166002900480601f016020809104026020016040519081016040528092919081815260200182805460018160011615610100020316600290048015611a075780601f106119dc57610100808354040283529160200191611a07565b820191906000526020600020905b8154815290600101906020018083116119ea57829003601f168201915b505050505092508060ff1690509650965096509650965096505091939550919395565b600460009054906101000a900460ff1681565b600160003373ffffffffffffffffffffffffffffffffffffffff1673ffffffffffffffffffffffffffffffffffffffff16815260200190815260200160002060009054906101000a900460ff16611afc576040517f08c379a00000000000000000000000000000000000000000000000000000000081526004018080602001828103825260098152602001807f6e6f74206f776e6572000000000000000000000000000000000000000000000081525060200191505060405180910390fd5b8060ff166005805490508110611b7a576040517f08c379a000000000000000000000000000000000000000000000000000000000815260040180806020018281038252601a8152602001807f7472616e73616374696f6e20646f6573206e6f7420657869737400000000000081525060200191505060405180910390fd5b8160ff1660058181548110611b8b57fe5b906000526020600020906005020160040160009054906101000a900460ff1615611c1d576040517f08c379a000000000000000000000000000000000000000000000000000000000815260040180806020018281038252601c8152602001807f7472616e73616374696f6e20616c72656164792065786563757465640000000081525060200191505060405180910390fd5b600060058460ff1681548110611c2f57fe5b90600052602060002090600502019050600360008560ff1660ff16815260200190815260200160002060003373ffffffffffffffffffffffffffffffffffffffff1673ffffffffffffffffffffffffffffffffffffffff16815260200190815260200160002060009054906101000a900460ff16611d15576040517f08c379a00000000000000000000000000000000000000000000000000000000081526004018080602001828103825260198152602001807f7472616e73616374696f6e206e6f7420636f6e6669726d65640000000000000081525060200191505060405180910390fd5b60018160040160018282829054906101000a900460ff160392506101000a81548160ff021916908360ff1602179055506000600360008660ff1660ff16815260200190815260200160002060003373ffffffffffffffffffffffffffffffffffffffff1673ffffffffffffffffffffffffffffffffffffffff16815260200190815260200160002060006101000a81548160ff0219169083151502179055508360ff163373ffffffffffffffffffffffffffffffffffffffff167f8e43d1347d290253566719e5803eaed186625b6d1907fdbdf69b5bb3f431e6d160405160405180910390a350505050565b60026020528060005260406000206000915054906101000a900460ff1681565b6000600580549050905060056040518060c001604052808773ffffffffffffffffffffffffffffffffffffffff1681526020018673ffffffffffffffffffffffffffffffffffffffff168152602001858152602001848152602001600015158152602001600060ff16815250908060018154018082558091505060019003906000526020600020906005020160009091909190915060008201518160000160006101000a81548173ffffffffffffffffffffffffffffffffffffffff021916908373ffffffffffffffffffffffffffffffffffffffff16021790555060208201518160010160006101000a81548173ffffffffffffffffffffffffffffffffffffffff021916908373ffffffffffffffffffffffffffffffffffffffff160217905550604082015181600201556060820151816003019080519060200190611f6a92919061208b565b5060808201518160040160006101000a81548160ff02191690831515021790555060a08201518160040160016101000a81548160ff021916908360ff16021790555050508373ffffffffffffffffffffffffffffffffffffffff168160ff163373ffffffffffffffffffffffffffffffffffffffff167f14e212d9044e005ecb8a3745d8ad0970233847f2ff28afc4e7c56a284005080486866040518083815260200180602001828103825283818151815260200191508051906020019080838360005b8381101561204957808201518184015260208101905061202e565b50505050905090810190601f1680156120765780820380516001836020036101000a031916815260200191505b50935050505060405180910390a45050505050565b828054600181600116156101000203166002900490600052602060002090601f0160209004810192826120c15760008555612108565b82601f106120da57805160ff1916838001178555612108565b82800160010185558215612108579182015b828111156121075782518255916020019190600101906120ec565b5b5090506121159190612119565b5090565b5b8082111561213257600081600090555060010161211a565b509056fe63616e6e6f742065786563757465207472616e73616374696f6e206173206e756d626572206f6620636f6e6669726d6174696f6e73207265717569726564206973206e6f7420636f6d706c657465796f752063616e6e6f7420617070726f766520796f7572206f776e207472616e73616374696f6e2c2067657420616e6f74686572206f776e657220746f20646f20746869732ea2646970667358221220d0da8b7f6c6c87d4536b28829a86da48dcea416602ffb30ff20ede765f7341cf64736f6c63430007060033",
  "immutableReferences": {},
  "source": "// SPDX-License-Identifier: MIT\npragma solidity ^0.7.6;\n\n\ncontract MultiSigWallet {\n\n  // Events\n  event Deposit(address indexed sender, uint amount, uint balance);\n  event SubmitTransaction(address indexed owner, uint8 indexed txIndex, address indexed to, uint value, bytes data);\n  event ConfirmTransaction(address indexed owner, uint8 indexed txIndex);\n  event RevokeConfirmation(address indexed owner, uint8 indexed txIndex);\n  event ExecuteTransaction(address indexed owner, uint8 indexed txIndex);\n\n\n  // State variables\n  address[] public owners;\n  mapping(address => bool) public isOwner;\n\n  mapping(bytes32 => bool) public usedNonces; // To prevent already used nonce.\n  // mapping from tx index => owner => bool\n  mapping(uint8 => mapping(address => bool)) public isConfirmed;\n\n  uint8 public numConfirmationsRequired;\n\n  struct Transaction{\n    address from;\n    address to;\n    uint value;\n    bytes data;\n    bool executed;\n    uint8 numConfirmations;\n  }\n\n  Transaction[] public transactions;\n\n  // Modifiers\n  modifier onlyOwner() {\n    require(isOwner[msg.sender], \"not owner\");\n    _;\n  }\n\n  modifier txExists(uint _txIndex){\n    require(_txIndex < transactions.length, \"transaction does not exist\");\n    _;\n  }\n\n  modifier notExecuted(uint _txIndex){\n    require(!transactions[_txIndex].executed, \"transaction already executed\");\n    _;\n  }\n\n  modifier notConfirmed(uint8 _txIndex){\n    require(!isConfirmed[_txIndex][msg.sender], \"transaction already confirmed\");\n    _;\n\n  }\n\n\n  constructor(address[] memory _owners, uint8 _numConfirmationsRequired) payable {\n    require(_owners.length > 0, \"owners required\");\n    require(_numConfirmationsRequired > 0 && _numConfirmationsRequired <= _owners.length, \"invalid number of confirmations\");\n\n    for (uint8 i=0; i<_owners.length; i++){\n      address owner = _owners[i];\n\n      require(owner != address(0), \"invalid owner\");\n      require(!isOwner[owner], \"owner must be unique\");\n\n      isOwner[owner] = true;\n      owners.push(owner);\n    }\n\n    numConfirmationsRequired = _numConfirmationsRequired;\n  }\n\n\n  // Receiving ethers\n  receive() payable external {\n    emit Deposit(msg.sender, msg.value, address(this).balance);\n  }\n\n  // Add transaction to pool\n  function _addTransaction(address _from, address _to, uint _value, bytes memory _data) private {\n    uint8 txIndex = uint8(transactions.length);\n    transactions.push(Transaction({\n    from: _from,\n    to: _to,\n    value: _value,\n    data: _data,\n    executed: false,\n    numConfirmations: 0\n    }));\n\n\n    emit SubmitTransaction(msg.sender, txIndex, _to, _value, _data);\n  }\n\n\n  // The owner has to propose a transaction that must be approved by other owners\n  function submitTransaction(address to, uint value, bytes memory data) public onlyOwner{\n    _addTransaction(msg.sender, to, value, data);\n  }\n\n\n  // Other owners need to approve the transaction\n  function confirmTransaction(uint8 _txIndex) public onlyOwner txExists(_txIndex) notExecuted(_txIndex) notConfirmed(_txIndex) {\n    Transaction storage transaction = transactions[_txIndex];\n\n    require(transaction.from != msg.sender, \"you cannot approve your own transaction, get another owner to do this.\");\n\n    transaction.numConfirmations += 1;\n    isConfirmed[_txIndex][msg.sender] = true;\n\n    emit ConfirmTransaction(msg.sender, _txIndex);\n  }\n\n\n  //  Should the owner decide to cancel the transaction\n  function revokeConfirmation(uint8 _txIndex) public onlyOwner txExists(_txIndex) notExecuted(_txIndex){\n    Transaction storage transaction = transactions[_txIndex];\n\n    require(isConfirmed[_txIndex][msg.sender], \"transaction not confirmed\");\n\n    transaction.numConfirmations -= 1;\n    isConfirmed[_txIndex][msg.sender] = false;\n\n    emit RevokeConfirmation(msg.sender, _txIndex);\n\n  }\n\n\n  // If enough owners approve the transaction\n  function executeTransaction(uint8 _txIndex) public onlyOwner txExists(_txIndex) notExecuted(_txIndex) {\n    Transaction storage transaction = transactions[_txIndex];\n\n    require(transaction.numConfirmations >= numConfirmationsRequired, \"cannot execute transaction as number of confirmations required is not complete\");\n    transaction.executed = true;\n\n    (bool success, ) = transaction.to.call{value: transaction.value}(transaction.data);\n\n    require(success, \"tx failed\");\n\n    emit ExecuteTransaction(msg.sender, _txIndex);\n\n  }\n\n\n\n  function verifySignature(address to, uint value, bytes memory data, bytes32 nonce, bytes32 r, bytes32 s, uint8 v) public {\n    bytes32 messageHash = keccak256(abi.encodePacked(to, value, data, nonce, address(this)));\n\n    require(!usedNonces[messageHash], \"transaction submitted\");\n    usedNonces[messageHash] = true;\n\n    bytes32 messageHash2 = keccak256(abi.encodePacked(\"\\x19Ethereum Signed Message:\\n32\", messageHash));\n    address signer = ecrecover(messageHash2, v, r, s);\n    require(isOwner[signer], \"not an owner\");\n\n    _addTransaction(signer, to, value, data);\n  }\n\n\n  function getOwners() public view returns (address[] memory){\n    return owners;\n  }\n\n\n  function getTransactionCount() public view returns (uint){\n    return transactions.length;\n\n  }\n\n\n  function getTransaction(uint8 _txIndex) public view returns (address from, address to, uint value, bytes memory data,\n    bool executed, uint numConfirmations){\n    Transaction storage transaction = transactions[_txIndex];\n    return (\n    transaction.from,\n    transaction.to,\n    transaction.value,\n    transaction.data,\n    transaction.executed,\n    transaction.numConfirmations\n    );\n  }\n\n\n  function getBalance() public onlyOwner view returns (uint){\n    return address(this).balance;\n  }\n\n\n  function getContractAddress() public view returns (address){\n    return address(this);\n  }\n\n}",
  "sourcePath": "/home/user/gbc/courses/advance-smc/project/MultiSigWallet/contracts/MultiSigWallet.sol",
  "compiler": {
    "name": "solc",
    "version": "0.7.6+commit.7338295f.Emscripten.clang"
  },
  "schemaVersion": "3.3.4",
  "updatedAt": "2021-04-06T00:18:14.006Z",
  "networkType": "ethereum",
  "devdoc": {
    "kind": "dev",
    "methods": {},
    "version": 1
  },
  "userdoc": {
    "kind": "user",
    "methods": {},
    "version": 1
  }
}